:020000040000FA
:10000000183B0010E9010000F1010000F3010000BD
:10001000F5010000F7010000F901000000000000F8
:100020000000000000000000000000006903000064
:10003000FD01000000000000F10300004104000089
:10004000030200000302000003020000030200009C
:10005000030200000302000003020000030200008C
:10006000030200000302000003020000030200007C
:10007000030200000302000003020000030200006C
:10008000030200000302000003020000030200005C
:10009000030200000302000003020000030200004C
:1000A000030200000302000003020000030200003C
:1000B000030200000302000003020000030200002C
:1000C00003020000030200000302000000F002F837
:1000D00000F060F80AA090E8000C82448344AAF182
:1000E0000107DA4501D100F055F8AFF2090EBAE880
:1000F0000F0013F0010F18BFFB1A43F0010318475C
:10010000B0270000D027000010F8013B0A4413F08C
:10011000030408BF10F8014B1D1108BF10F8015B64
:10012000641E05D010F8016B641E01F8016BF9D153
:10013000002D15D010F8014B03F00C030C2BA1EB94
:1001400004040ABF10F8013BA4EB8314A4EB0324BE
:1001500005F1010314F8016B5B1E01F8016BF9D581
:10016000914238BF10F8013BD1D3704700230024DF
:1001700000250026103A28BF78C1FBD8520728BFB7
:1001800030C148BF0B6070471FB500F0ACF81FBD11
:1001900010B510BD01F09DF91146FFF7F5FF00F015
:1001A00023FE01F0BBF903B4FFF7F2FF03BC01F03B
:1001B000BFF900000B49D1F800C04A685CF8043B65
:1001C0001068184442F8040B8C4528BFA1F1DC0CE0
:1001D0008A4228BFA1F1DC02C1F800C04A6020F0C9
:1001E000004070471039001009488047094800470F
:1001F000FEE7FEE7FEE7FEE7FEE7FEE7FEE7FEE7D7
:10020000FEE7FEE704480549034A054B7047000036
:10021000ED050000CD00000018390010183B00105B
:100220001839001000BFFEE7704700BFFEE710B5A9
:1002300001F07CFE30B1194900EB400001EB4010A9
:10024000603810BD164810BD164A10B551680346F7
:10025000082900D3FEE7144800EB0110491C186080
:10026000516001F067FC012010BD10B5044601F09B
:100270005DFE002805D04FF6FF71DFF830C0206822
:1002800000DF10BD10B5044601F050FE002803D079
:10029000DFF81CC0206800DF10BD0000B027001090
:1002A000D437001004000010502A0010291C000050
:1002B000451B000000487047D43700100B4910B5AB
:1002C000A1F17C020A4CC2E93712372106E000EBAB
:1002D000104342F82130074B00FB03400B1EA1F1F5
:1002E0000101F4DC10BD0120E8E70000B038001087
:1002F000E119D666CD0D0100FFF799BFFFFFFFFFA3
:1003000080F309887047EFF309807047684680F3EF
:10031000098804480078C00714BF0220032080F336
:100320001488704774280000DFF818C0EFF30583C5
:100330001B0618BF6047EFF31483DB0708BF604755
:1003400000DF70477B180000DFF818C0EFF305836B
:100350001B0618BF6047EFF31483DB0708BF604735
:1003600000DF7047191A0000EFF30980816911F866
:10037000021C39BB90E80F10E047EFF3098C194BD2
:1003800093E80600914218D059B10CB44FF0010324
:1003900081F826302CE9F00FC1F82CC001F060FD87
:1003A0000CBC1A60D2F82CC0BCE8F00F92F82630D2
:1003B0008CF309881BB192F82500CCF800006FF08F
:1003C000020E704710B5084A1268914209D8074CCE
:1003D00054F8214090E80F10A047EFF3098C8CE807
:1003E0000F0010BD4815001040150000401500001A
:1003F00001F04EFC114B93E8060091421BD00CB467
:100400004FF0000381F82630EFF3098C2CE9F00F50
:10041000C1F82CC001F024FD0CBC1A60D2F82CC02D
:10042000BCE8F00F8CF3098892F826301BB192F8E3
:100430002530CCF800306FF0020E704748150010E0
:1004400001F034FDD6E7000001F016FA01F02EFDB0
:10045000D0E700002DE9F047B3480068C0F3016021
:1004600003287DD1B0488430006800F0030030B12B
:10047000012830D0022859D003282BD100E000BF3A
:10048000A9480068C0F30740441C0221A6488838E8
:10049000D0F88800C0F30E00401CA1FB0001A34B64
:1004A0004FF0000CA0FB037901FB039100FB0C1142
:1004B00022466346384600F087FF05469A487C305E
:1004C0000068C0B2441C22460023284600F07CFF8E
:1004D0009749086056E094480068C0F30740441C00
:1004E000022191488838D0F88800C0F30E00401CE3
:1004F000A1FB00108F4A4FF0000CA1FB027900FB1A
:10050000029001FB0C0122466346384600F05CFF76
:10051000054685487C300068C0B2441C2246002352
:10052000284600F051FF824908602BE07E480068B1
:10053000C0F30740441C02217B488838D0F888006B
:10054000C0F30E00401CA1FB00124FF4004000233A
:10055000A1FB007902FB009001FB0301224600E0B1
:1005600011E0384600F030FF05466F487C300068E7
:10057000C0B2441C22460023284600F025FF6C49E7
:10058000086000BF30E068488430006800F0030075
:1005900030B1012810D0022819D0032823D100E05F
:1005A00000BF61487C300068C0B2401C5F49B1FBAD
:1005B000F0F05F49086016E05B487C300068C0B22C
:1005C000401C5C49B1FBF0F0594908600BE056480B
:1005D0007C300068C0B2401C4FF40041B1FBF0F029
:1005E0005349086000BF00BFBDE8F0872020524992
:1005F00008604D488838D0F8A00100F0200030B1E4
:1006000000BF4D48006800F040000028F9D00320EA
:1006100045497C310860002043498839C1F8A80168
:1006200045490C31086001203F49843108600B20A6
:100630003D49091F0860AA203B49091D0860552053
:1006400008600120384908390860AA203649091D88
:100650000860552034498839C1F88C0000BF324801
:10066000006800F080600028F9D003202E49083986
:100670000860AA202C498839C1F88C0055202A49E5
:10068000091D086000BF2848006800F04070B0F104
:10069000407FF8D1232024491C310860AA20224938
:1006A0008839C1F8AC0055201F4924310860012069
:1006B0001D4918310860AA201B49243108605520C3
:1006C00019498839C1F8AC0000BF174820300068CC
:1006D00000F480600028F8D0032013491831086026
:1006E000AA2011498839C1F8AC0055200E4924319F
:1006F000086000BF0C482030006800F44070B0F57E
:10070000407FF7D10D4808493C3108600020064978
:100710008839C1F8C8010846006820F4704040F4E8
:10072000804008607047000088C00F4000093D000D
:1007300000000010001BB700A0C10F40DE87280496
:100740002DE9F0470124012500260EE04FF00008B6
:1007500007E0232008EBC801FA4A1144885508F144
:100760000108B8F1090FF4DB761C092EEEDB00203E
:10077000FFF7A4FD202004EBC401F24A11444855C0
:10078000002677E0FFF716FD8146C01709EB907051
:100790008010A9EB8000471C012F18D1012D00DC2F
:1007A00067E004EBC400E7490144A81E085C232865
:1007B0000CD16D1E202004EBC401E24A11444855BF
:1007C0006D1E04EBC4011144485500E0AD1E042F1A
:1007D00018D1012C00DC4CE0A01E00EBC000D94970
:1007E0000844405D23280CD1641E202004EBC40182
:1007F000D44A11444855641E04EBC40111444855C1
:1008000000E0A41E022F18D1072C00DB31E0A01C51
:1008100000EBC000CB490844405D23280CD1641C88
:10082000202004EBC401C74A11444855641C04EB62
:10083000C4011144485500E0A41C032F18D1072D12
:1008400000DB16E004EBC400BE490144A81C085CB0
:1008500023280CD16D1C202004EBC401B94A11449B
:1008600048556D1C04EBC4011144485500E0AD1C13
:1008700000BF761CB6F57A7F84DB2421B14880F86E
:100880004610BDE8F0872DE9F04F8BB0064689464B
:100890004FF4A0700A90A0270920099008903546CF
:1008A000BFE10A9801F060FD0190284601F05CFD6F
:1008B0000090019901F07AFC8346A34801685846EC
:1008C00001F0B2FD4FF0804103909F48006801F0B5
:1008D0006DFC83469D480168584601F0D3FE0290A6
:1008E000039901F0EFFB9A490860002099490860DC
:1008F0000790069005909648006801F01FFB964906
:1009000008609348006800F0F1FE94490860B2E086
:1009100093499048006801F0D5FB8E49086008466D
:1009200001688D48006801F07FFD83468D480168AD
:10093000584601F0C7FB8C49086086480168874823
:10094000006801F071FD834688480168584601F04F
:10095000B9FB8749086000218348006801F030FD39
:1009600019D3089801F000FD83467F480168584676
:1009700001F026FD0FD900217D48006801F020FD1F
:1009800009D3099801F0F0FC83467948016858467C
:1009900001F016FD06D801200790764800686D49E1
:1009A000086068E07248006801F0C2FC00EBC0001B
:1009B000644900EB010B6C48006801F0B9FC1BF8BE
:1009C0000000232843D1012007906948006801F006
:1009D000AFFC8346684801686548006801F072FB17
:1009E000039001F0A5FC83450FD16148006801F038
:1009F0009FFC8346604801685D48006801F04CFE3A
:100A0000039001F095FC834521D05748006801F020
:100A10008FFC8346584801685348006801F052FB38
:100A2000039001F085FC83450FD14F48006801F029
:100A30007FFC8346504801684B48006801F02CFE5B
:100A4000039001F075FC834501D0012006904848D1
:100A5000006801F06DFC00EBC0003A4900EB010BAF
:100A60004148006801F064FC1BF80000242802D112
:100A7000012007900590079838B93E48016835482D
:100A8000006801F09DFCFFF443AF384601F06CFCB8
:100A9000019030480168019801F088FB03903846C6
:100AA00001F062FC4FF07F51019001F07FFB02905A
:100AB000039901F0F1FD834601F03AFC8046C8EB52
:100AC000470AFF2004904FF081412A48006801F056
:100AD0006DFB83461F480168584601F071FD02D83E
:100AE000182004904EE025492248006801F05EFB82
:100AF000834618480168584601F062FD02D8392043
:100B000004903FE04FF080411A48006801F04EFB2E
:100B1000834610480168584601F052FD02D87B20F8
:100B200004902FE04FF07E511248006801F03EFB28
:100B3000834608480168584601F042FD20D8DE206F
:100B400004901FE0503700101C000010140000102B
:100B500024000010280000102C00001030000010AD
:100B6000CDCCCC3D0C000010340000101000001063
:100B700038000010200000103C0000100000404031
:100B8000FF200490069808B129200490059808B128
:100B900007200490002440E0444513DC072104EBC7
:100BA00084004200A81B02EB4000A34A1154C32159
:100BB00004EB84004200A81B02EB4000401C9E4A4C
:100BC000115429E0444515DD544513DC04EB840140
:100BD0004A00A91B02EB4101974A0498505404EBC8
:100BE00084014A00A91B02EB4101491C924A049866
:100BF000505411E0B52104EB84004200A81B02EB25
:100C000040008D4A115404EB84004200A81B02EB03
:100C10004000401C884A1154A41CB4EB470FBBDBB6
:100C20006D1C4D45FFF63DAE0BB0BDE8F08F70B5C5
:100C30008248406B792101EA1050814908600846DA
:100C4000007800F01000002856D17E48006801F0BE
:100C500075F905467C480168284601F0E5FB044625
:100C60007A480168204601F02DFA784908607548F5
:100C7000006800F03BFD054673480168284601F016
:100C8000D3FB044672480168204601F01BFA704904
:100C900008600846006801F04BFB00EBC0006D499E
:100CA00044186A48006801F043FB205C232823D1E4
:100CB0006448006801F042F9054663480168284627
:100CC00001F0B2FB044661480168204601F0DAFCFD
:100CD0005E4908605B48006800F008FD05465A4818
:100CE0000168284601F0A0FB0446594801682046E7
:100CF00001F0C8FC564908605148007800F04000F7
:100D0000002856D14F48006801F018F905464E48B2
:100D10000168284601F088FB04464C4801682046DB
:100D200001F0B0FC494908604648006800F0DEFC6C
:100D3000054645480168284601F076FB04464448CC
:100D40000168204601F09EFC4149086008460068A1
:100D500001F0EEFA00EBC0003E4944183B48006841
:100D600001F0E6FA205C232823D13648006801F020
:100D7000E5F8054634480168284601F055FB04466D
:100D800032480168204601F09DF9304908602D483D
:100D9000006800F0ABFC05462B480168284601F0CE
:100DA00043FB04462A480168204601F08BF9284994
:100DB00008602348007800F0080038B94FF07A51F5
:100DC0002048006801F068FC1E4908601C48007853
:100DD00000F0200038B94FF07A511A48006801F04D
:100DE00071F91849086070BD08B5FFF7FFFB00F006
:100DF00078F84FF6FF7000F01AFA1048006A20F0F9
:100E0000F2600E490862FFF79BFC14E0FFF70FFF4A
:100E100000240DE004F10A012046FFF734FD0648E6
:100E2000A0230A2228210090204600F088FA0A34E4
:100E3000B4F5A07FEEDBE9E7D02A001000C009205E
:100E40004000001014000010180000100C000010EA
:100E50001000001050370010800400BF011EA0F1E8
:100E60000100FBD1704710B50446F948406920F0F5
:100E70004000F7494861204600F082FAF448406992
:100E800040F04000F249486110BD10B50446F048FA
:100E9000406920F04000EE49486144F4807000F061
:100EA0006FFAEB48406940F04000E949486110BDE5
:100EB00010B50446E648406920F04000E449486126
:100EC000491541EA242000F05BFAE1B241F4807058
:100ED00000F056FADE48406940F04000DC494861C5
:100EE00010BD10B5DB48406A20F04070D949486217
:100EF000D7488030006840F08050D549C1F8800064
:100F0000D448406A20F04060D2494862D048D0F8C6
:100F1000800040F00050CE49C1F880000846D0F86B
:100F2000940040F00050C1F89400CB48D0F8C400C1
:100F300040F48060C849C1F8C4000846D0F8A80150
:100F400040F40010C1F8A801C148006840F040001A
:100F5000BF49086040208861BE48006820F47C20BA
:100F6000BC4908600846006840F428200860082052
:100F7000BA49086006200861022048600520FFF792
:100F80006BFFCF20FFF76FFF0020FFF77EFF83206E
:100F9000FFF77BFF3020FFF778FFED20FFF763FFBF
:100FA0006420FFF772FF0320FFF76FFF1220FFF7A7
:100FB0006CFF8120FFF769FFE820FFF754FF8520D1
:100FC000FFF763FF0120FFF760FF7920FFF75DFF68
:100FD000CB20FFF748FF3920FFF757FF2C20FFF702
:100FE00054FF0020FFF751FF3420FFF74EFF02208F
:100FF000FFF74BFFF720FFF736FF2020FFF745FFF5
:10100000EA20FFF730FF0020FFF73FFF0020FFF747
:101010003CFFC020FFF727FF1D20FFF736FFC12050
:10102000FFF721FF1120FFF730FFC520FFF71BFF5F
:101030003320FFF72AFF3420FFF727FFC720FFF7F1
:1010400012FFBE20FFF721FFF620FFF70CFF012063
:10105000FFF71BFF1020FFF718FF0020FFF715FF19
:101060003A20FFF700FF5520FFF70FFF3620FFF76C
:10107000FAFEB020FFF709FFB120FFF7F4FE0020D1
:10108000FFF703FF1B20FFF700FFB620FFF7EBFE83
:101090000A20FFF7FAFEA220FFF7F7FEF220FFF783
:1010A000E2FE0020FFF7F1FE2620FFF7DCFE012024
:1010B000FFF7EBFEE020FFF7D6FE0F20FFF7E5FE7F
:1010C0002320FFF7E2FE1F20FFF7DFFE0920FFF7D6
:1010D000DCFE0F20FFF7D9FE0820FFF7D6FE4B20DD
:1010E000FFF7D3FEF220FFF7D0FE3820FFF7CDFE4A
:1010F0000920FFF7CAFE1320FFF7C7FE0320FFF702
:10110000C4FE1220FFF7C1FE0720FFF7BEFE042039
:10111000FFF7BBFEE120FFF7A6FE0020FFF7B5FEBC
:101120001D20FFF7B2FE2020FFF7AFFE0220FFF7E1
:10113000ACFE1120FFF7A9FE0720FFF7A6FE342022
:10114000FFF7A3FE8120FFF7A0FE4620FFF79DFEDC
:101150000620FFF79AFE0E20FFF797FE0C20FFF700
:1011600094FE3220FFF791FE3820FFF78EFE0F200D
:10117000FFF78BFE1120FFF776FE0C20FFF76CFEC9
:101180002920FFF770FE3248D0F8940040F08050DC
:101190002F49C1F8940010BD70B504460D462A20B1
:1011A000FFF761FEC4F30720FFF76FFEE0B2FFF721
:1011B0006CFE6119491EC1F30720FFF766FE611935
:1011C000491EC8B2FFF761FE70BD70B504460D46FA
:1011D0002B20FFF748FEC4F30720FFF756FEE0B2CE
:1011E000FFF753FE6119491EC1F30720FFF74DFEBB
:1011F0006119491EC8B2FFF748FE70BD70B50546BB
:101200000C4601212846FFF7C7FF01212046FFF7C2
:10121000DCFF2C20FFF727FE11480088FFF748FE6F
:1012200070BD0F49088070470E490880704770B53F
:1012300005464FF4A0710020FFF7AEFFF02100201B
:10124000FFF7C3FF2C20FFF70EFE002410E0000084
:1012500000C0092000C0024000C00F400000034051
:1012600044150010461500102846FFF721FE641CA7
:10127000B4F5963FF8D370BD2DE9F04180460E4697
:1012800017460024002510214046FFF785FF18214E
:101290003046FFF79AFF2C20FFF7E5FD00BF14E072
:1012A00000250FE037F814000121A940084020B9BB
:1012B0003B480088FFF7FCFD03E03A480088FFF751
:1012C000F7FD6D1C102DEDDB641C182CE8D3BDE878
:1012D000F08170B505460E461446A4F12000C4B254
:1012E00004EB4400304901EB001231462846FFF779
:1012F000C3FF70BD2DE9F04105460C4600260027CE
:1013000007E0227829463846FFF7E3FF1037641CD0
:10131000761C207808B1012000E00020142E01D2B4
:10132000012100E0002108400028EAD1BDE8F08159
:1013300010B504461DA12046FFF7DCFF10BD2DE9C6
:10134000F05F81460E4614461D46DDF828A004FBDA
:1013500005FBD04621464846FFF71EFF294630468A
:10136000FFF733FF2C20FFF77EFD002704E038F85D
:10137000020BFFF79DFD7F1C5F45F8D3BDE8F09F92
:101380000146C1F308000F4A906000BF0D48C068D5
:1013900000F010000028F9D10A488068C0B27047F8
:1013A0004615001044150010440000102020202095
:1013B000202020202020202020202020202020202D
:1013C000000000000000034053EA020C00F06980B6
:1013D0002DE9F04B4FF00006002B1FBFB3FA83F549
:1013E00003FA05F424FA05F65E4012BF1643B2FA7A
:1013F00082F502FA05F4C5F120051EBF22FA05FCAC
:1014000044EA0C04203556EA044C4FEA144418BF51
:10141000641C4FF000084FF00009904271EB030C80
:1014200039D3002919BFB1FA81F701FA07F6B0FAEA
:1014300080F700FA07F6C7F120071EBF20FA07FC65
:1014400046EA0C062037B6FBF4FCA7EB0507103F75
:1014500007F01F0BCBF120060CFA0BFB2CFA06F65B
:1014600044BFB3460026202FA4BF5E464FF0000BBA
:101470005BEA060C08BF4FF0010B19EB0B09ABFB45
:10148000027C48EB0608C01B06FB02CC0BFB03CC1E
:1014900071EB0C01C1E70B46024641464846BDE8E8
:1014A000F08B13B54FF000004FF00001AFF3008058
:1014B000BDE81C40704770477047704710B5FEF795
:1014C0001BFF006810BD10B50446FEF715FF046051
:1014D00010BD7546FEF7EEFEAE4605006946534662
:1014E00020F00700854618B020B5FEF78BFEBDE85A
:1014F00020404FF000064FF000074FF000084FF07B
:10150000000B21F00701AC46ACE8C009ACE8C0090B
:10151000ACE8C009ACE8C0098D46704710B5044678
:10152000AFF300802046BDE81040FEF73CBE00004F
:1015300001491820ABBEFEE72600020070470000FC
:10154000000000004100080218BF04200A0E18BF66
:1015500040F001004FF07F4232EA010108BF40F045
:101560000200012808BF05207047012101F03BB9A6
:101570000021084600F01ABE6FF05E01080701F076
:1015800032B900002DE9F04D0D4614464FF07F4171
:10159000B1EB440F9EBF4FF0FF312960BDE8F08DE5
:1015A0004FF0004040EA0421C4F3C750783810F0EF
:1015B0001F024A4B4FEA601CC2F120067B44C4F371
:1015C000C750A0F178004FEA601003EB800053F899
:1015D0002C3008BFD0E901C612D0D0F804C0934027
:1015E0002CFA06F73B4387680CFA02FC27FA06F848
:1015F000C06807FA02F2F0404CEA080C42EA000622
:10160000A3FB0132ACFB01C0A6FB016101EB0C06A0
:101610008E4234BF4FF0010C4FF0000CC1186144F2
:10162000BCF1000F02D0814202D903E0814201D215
:10163000012000E00020104400F120024FEA92183F
:101640008006CA0C40EA42304F03C5F8008000F023
:101650008BFE8246384600F09FFE6FF0120101F0CB
:10166000C2F80746304600F097FE6FF0250101F002
:10167000BAF883463946504600F024FD594600F03A
:1016800021FD00F500666FF30B065146304601F070
:1016900003F8394601F000F8594600F0F3FF10490D
:1016A00000F0C2FE07460F49304600F0BDFE394645
:1016B00000F008FD07460C49304600F0B5FE3946FB
:1016C00000F000FD14F0004F08BFBDE8F08DC8F138
:1016D000805180F000402960BDE8F08DD0120000FC
:1016E000DB0FC92F22AAFD290000C92F2DE9F843DD
:1016F000044602464F486946B0EB420F09D94FF005
:10170000E640B0EB420F94BF00204FF0FF30009056
:1017100030E0494B22F00040834271D947492046CE
:1017200000F082FE00F07EFF804600F001FE00F037
:10173000030000904249404600F076FE05464149CC
:10174000404600F071FE06463F49404600F06CFE00
:1017500007463E49404600F067FE214600F092FFF2
:10176000394600F099FF314600F096FF294600F017
:1017700093FF04462546009C002C45DB294614F0C7
:10178000010F08461CD000F04FFE0646304900F01D
:101790004BFE304900F076FF314600F045FE2E4901
:1017A00000F090FC314600F03FFE294600F03CFE80
:1017B000294600F087FC14F0020F1CD0BDE8F88326
:1017C00000F032FE0546254900F02EFE244900F0C7
:1017D00079FC294600F028FE224900F073FC2946D6
:1017E00000F022FE4FF07E5100F06CFC14F0020F6E
:1017F00008BFBDE8F88380F00040BDE8F883FFE74C
:101800001046FFF7BFFEB4E76800B0F17F4F3CBF62
:101810004FF07E50BDE8F88307D14FF00100FFF78D
:1018200052FEBDE8F843FFF7A3BE2846BDE8F843E3
:10183000FFF79BBEB61F927E490E494683F9223FB1
:101840001A61342C0020A23300A0FD390000C93FEA
:10185000336D4C39DA82083CA0AA2ABEB93AB2BA32
:10186000CA9F2A3DDDFFFFBE4FF06041CA6F002ACC
:10187000FCD081F87C007047704750E8001F31B100
:101880000B6840E80032002AF7D108467047BFF3E2
:101890002F8FFAE770B50D46002812D04FF6FF7172
:1018A000084C884204D222680146104600F02EFA05
:1018B00020684570044800F0BFF8BDE8704000F0B3
:1018C000E1BA70BD48150010A43700100F4810B5DC
:1018D0000D4942680E480B680068934204D00A60C4
:1018E000CB88421E1A448A808A8880B282420AD1FA
:1018F00000200860054800F09FF80146BDE8104050
:10190000024800F027BA10BD50150010A43700108F
:101910005C15001070B51A4DE86800282ED0A88A12
:10192000401EA882002623E0A06838B161684160AB
:10193000606810B1A16881606660A66010482146A9
:10194000183800F007FAA08AA8826078042804D129
:101950000C49E08A09880844A0820120607084F85C
:101960002500E068E860E06808B10561E66026618E
:10197000A88A002802D1EC68002CD5D170BD0000E7
:10198000BC3700105C15001070B504000FD00D4D71
:10199000A17801262868827891420CD900F0F6F9E6
:1019A000286846702046BDE8704000F06BBA0648D3
:1019B00000F042F8F7E766702146BDE87040024843
:1019C00000F0C8B948150010A437001010B504463F
:1019D000008B084320836278618B062A16D0052A83
:1019E00017D1084215D001EA0002628388432083A0
:1019F000204600F0EFF901206070022084F82500F5
:101A00002146BDE81040034800F0A4B931EA0002C5
:101A1000ECD010BDA4370010814202D342688A4244
:101A200001D80120704750E8002F0A6040E80012FA
:101A3000002AF8D1002070470146406842684A6099
:101A40000B780022022B05D0012B03D0032B01D0F1
:101A50004260704743680BB1996042608260704792
:101A60002DE9F041044640680F464FF0000804F1AC
:101A70000C0620B1617802291DD0A089E8B3A089A5
:101A8000E18988424ED2208904EB8000C0F81070B2
:101A9000D6E85F0F401C81B2C6E8501F0028F7D17E
:101AA0002089401C80B22081E189884201D1A4F8BC
:101AB0000880BDE8F081406800B1012060702046D8
:101AC000FFF7BAFF80F825802289054604EB8202E1
:101AD000C0694146C2F81000D6E85F0F401C82B2D0
:101AE000C6E8502F0028F7D12089401C80B2208101
:101AF000E28990420BD1218109E0FFE72046FFF700
:101B00009BFF0546C0690421076085F82510012068
:101B10006870284600F05EF92946BDE8F0410448A7
:101B200000F018B9BDE8F0410320FEF77EBB0000CD
:101B3000A4370010032101700021418041608160C1
:101B4000C16070472DE9F0470446408820B1344D0C
:101B5000A1682A68914202D0FF20BDE8F087401EAC
:101B60000004000C608059D12968086AA04209D19C
:101B7000E068086208E0C268A24202D1E268C2607E
:101B800002E010460028F6D191F824000A6A06E027
:101B900053681BB19B78834200D91846D268002A4B
:101BA000F6D18870DFF87C8061689146012741B3E7
:101BB0002046FFF741FF0646052086F825003046FF
:101BC00000F008F96780A660306AE0603462296836
:101BD000D8F804008A788078824201D330460AE03F
:101BE000104800F0B7F831460E4800F0B3F8286806
:101BF0004770777010E0FFF7C7FE296881F82590DD
:101C00000CE0D8F804108A782968824206D9054881
:101C100000F0A0F8286847700020ECE700209CE75F
:101C200048150010A437001070B5184D0E46044634
:101C30004188286839B1A168814209D16088401C77
:101C40006080002070BDA060016AE1600462F5E779
:101C500076B18A788078824203D28870A06800F0DA
:101C60009FF8606830B12046296800F073F808E0FA
:101C7000012070BD286860602968002048602868DD
:101C8000846009213046FFF705FEF1E74815001092
:101C900070B51B48012102685170006800F076F8A9
:101CA000184D6C7818E000BF05EBC4014868027855
:101CB000EAB1012A20D000F0B9F8E878641C844227
:101CC00000D100240F48801CD0E84F1F491EC9B224
:101CD000C0E8421F002AF7D1A8780028E4D16C7030
:101CE0000948FFF7A9FEBDE8704000F0CBB80989AC
:101CF00089B2FFF76BFEE0E78968FFF7B1FEDCE72A
:101D00004815001010270010A4370010104A10B515
:101D1000D368ABB113469B8A03E08CB12246A48AF8
:101D20002344D4688B42F8D3C460D0600261C46895
:101D300004B12061591A8182908A401A908210BDA4
:101D40000024C460D060C91A02619182848210BDEF
:101D5000BC37001030B502780023022A03D0012AD4
:101D600001D0032A00D101238C7800E0104642689C
:101D700012B19578A542F9D24A6041601BB102B117
:101D80009160886030BD0020FBE7000003494A688D
:101D9000426000228260486070470000A437001053
:101DA00010B5836804462BB9607801280ED1084B22
:101DB00003E09B6818780028FBD0204600F01EF84E
:101DC0002146BDE810401846FFF7C4BF10BD000013
:101DD000A437001010B5016900290ED0C268CA608E
:101DE000C36800223BB18B8A848A23448B82C368F8
:101DF0001961C26000E08A82026110BD816839B158
:101E000042684A604168002901D080688860704754
:101E1000054906E04A68824202D14068486070473E
:101E200011460029F6D17047A437001010B541685B
:101E300079B1FFF701FE0446FFF7CCFF0120607087
:101E4000032084F825002146BDE810400348FFF731
:101E500081BF4188491C418010BD0000A43700109B
:101E600006480068D0E90B10814203D3006804499A
:101E7000884202D00120FEF7D8B9704748150010FB
:101E8000A52E5AE20749022248604270064A12789B
:101E9000002A05D006C98A4202D0C078FFF7E4BC08
:101EA0007047000048150010581500100C4810B578
:101EB0000268012151700068FFF768FFFFF706FD17
:101EC00008480168491C0160FFF724FD00F00EF886
:101ED0000548FFF7B1FDBDE81040FFF7D3BF000094
:101EE000481500105C150010A437001070B50D4C9B
:101EF0002068002815D0A0880B4E401EA0800AE064
:101F0000E888FEF791F9A888A08028682060294613
:101F10003068FFF781FDA088002802D12568002DD8
:101F2000EED170BD6015001004000010024800687A
:101F3000002800D0C0787047481500102DE9F843FC
:101F40000446024652486946B0EB420F09D94FF0A9
:101F5000E640B0EB420F94BF00204FF0FF300090FE
:101F600030E04C4B22F00040834271D94A49204670
:101F700000F05AFA00F056FB804600F0D9F900F064
:101F8000030000904549404600F04EFA054644499A
:101F9000404600F049FA06464249404600F044FAFD
:101FA00007464149404600F03FFA214600F06AFBEF
:101FB000394600F071FB314600F06EFB294600F017
:101FC0006BFB04462546009C002C45DB294614F09B
:101FD000010F08461ED000F027FA0546334900F0ED
:101FE00023FA334900F06EF8294600F01DFA314912
:101FF00000F068F8294600F017FA4FF07E5100F023
:1020000061F814F0020F08BFBDE8F88380F00040CB
:10201000BDE8F88300F008FA0646274900F004FA04
:10202000264900F02FFB314600F0FEF9244900F06C
:1020300049F8314600F0F8F9294600F0F5F929464B
:1020400000F040F814F0020FE0D1BDE8F883FFE79C
:102050001046FFF797FAB4E76800B0F17F4F09D256
:102060002846FFF76FFA042808BFFFF785FA2846CD
:10207000BDE8F88306D10120FFF725FABDE8F84353
:10208000FFF776BA2846BDE8F843FFF76EBA0000BE
:10209000B61F927E490E494683F9223F1A61342CBD
:1020A0000020A23300A0FD390000C93FB93AB2BAFE
:1020B000CA9F2A3DDDFFFFBE336D4C39DA82083CF2
:1020C000A0AA2ABE90EA010F48BF81F0004100F1AA
:1020D000EA82421A3CBF801A89184FEAD0524FF068
:1020E0007F4C1CEA410FA2EBD15318BF9CEA026F50
:1020F00000F03B804FF0004C4CEA00204CEA0121FC
:1021000021FA03FC10EB0C0C1ED202F1FF325FEA45
:102110001C2040EBC25038BF70471CF07F0F4FEAC5
:10212000400C18BFBCF17F4F38BF7047C3F120038C
:10213000994008BF20F00100BCF17F4F38BF7047C5
:10214000A0F1C04000F037BA4FEA3C00000A40EB73
:10215000C25028BF1CF0FF0F4FEA400CE6D018BF5A
:10216000BCF17F4F38BF7047EAE79CEA026F05D0A9
:1021700010EA5C0F08BF00F00040704710B500F097
:10218000D4F900BF64FBBE3E014800F0FABA00BFBC
:102190000000C07F401058BFC0F14040491058BFF8
:1021A000C1F140418142EFF3008070474FF47F0C52
:1021B0001CEAD0121EBF1CEAD11392EA0C0F93EA5C
:1021C0000C0F00F0858090EA010F48BF42F4807246
:1021D00040F4000C41F400002CF07F4120F07F40DF
:1021E00000B58142A2EB03020FF2081CACEB504E8B
:1021F000C0F100009EF800E04FEA4E0E00FB0EFC1E
:1022000038BF49004FEA2C1C02F5FA020CFB0EF312
:102210004FEACE1E4FEA112C4FEAC1210EEB635E4E
:1022200042EB22420EFB0CFC4FEA1C5300FB031155
:102230004FEA112C4FEA01310EFB0CFC4FEADC4C4B
:1022400000FB0C11C14228BF09184CEB03335DF8A9
:1022500004EB10EB410143EBC250B2F57C0F38BFE9
:10226000704729D512F0F00F1CBF00F1C04000F0FC
:1022700000407047008182838485868788898B8CA3
:102280008D8E8F919293959697999A9C9D9FA0A2DF
:10229000A3A5A7A8AAACAEB0B2B3B5B7B9BCBEC02F
:1022A000C2C5C7C9CCCED1D4D7D9DCDFE2E6E9ECD0
:1022B000F0F3F7FAFE0000004FEA400C0CF1807CCE
:1022C000BCF17E4F28BF7047B0F1C04000F073B939
:1022D00090EA010F0CEAD11348BF42F480726245C4
:1022E00038BF634507D213F47F0F16D080EA010090
:1022F00000F00040704710B500F017F9097EFC3E71
:1023000000F005B880EA010000F00040704780EA64
:10231000010000F0004000F04EB912F47F0F04BF3E
:102320000248704780EA010000F045B90000C07F14
:1023300041000B0ED3F19E0208D950F400034FEA7E
:10234000032323FA02F048BF4042704710B500F063
:10235000ECF800BF49922480002070476FF00042E3
:1023600082EA20007047000010F0004148BF404260
:10237000B0FA80F310FA03F2C3F19D030BD051EAD7
:10238000C35101EB1220530638BF704700F1010022
:1023900008BF20F001007047B0FA80F310FA03F292
:1023A000C3F19D030AD0D90501EB1220530638BFB3
:1023B000704700F1010008BF20F0010070470000E5
:1023C00050EA010C00F113801CF5000F58BFBCF55A
:1023D000000F01D48842704707D710F5000F58BF8F
:1023E00011F5000F15D488427047894270471CF5DB
:1023F000000F04D5BCF5000FF7D5814270474FF0B0
:10240000807C1CEB400F38BF1CEB410F01D2814296
:10241000704710B500F089F8922449004FF0005041
:102420004FF08051FFF7B6BE4FF47F0C1CEAD0127C
:102430001EBF1CEAD11392EA0C0F93EA0C0F00F0B6
:10244000478090EA010F48BF42F480724FF0004C81
:102450004CEA00204CEA012102EB0302A0FB01132D
:10246000A2F50002002918BF43F001035B0028BF5A
:102470004FEA330342EB22425FEA132C4CEBC2508B
:102480002EBFBCEB436FB2F57C0F70474FEA036C75
:10249000BCF1004F08BF20F00100B2F57C0F38BF3F
:1024A00070470BD582F0FF0212F5803FC8BF70471E
:1024B00000F1C040D8BF00F00040704700F5000CAC
:1024C0005FEA4C0C48BF7047B0F1C04000F073B8F1
:1024D00090EA010F0CEAD11348BF42F480726245C2
:1024E00038BF634504D280EA010000F00040704725
:1024F00010B500F01AF800BF8900013E00F007B8DF
:1025000000F009B85FEA410C5FEA1C6C08D080EA71
:10251000010000F050B85FEA400C5FEA1C6CF6D195
:102520004FF00040A0F5800070470EF1020E2EF033
:10253000030E5EF8044B244204D44FEA4102B2F188
:102540007F4F11D84FEA4003B3F17F4F0CD80ED123
:102550004FEAD07CB2F17F4F0CEB4C0C0CF1020C2B
:1025600008BF4CEBD17C04E04FF0080C01E04FEACF
:10257000D17C0CEB4C0324FA03F404F00704B4F10F
:10258000040C06D20EEB840CBDE810404CF0010C9C
:102590006047DFE80CF0070802024FF00040A0F5AA
:1025A000800010BD0846420018BFD2F1807288BF7B
:1025B00000F0004010BDFF2141EAD050C005704737
:1025C00051EA000C00F113801CF5000F58BFBCF558
:1025D000000F01D48142704707D711F5000F58BF93
:1025E00010F5000F15D481427047894270471CF5E1
:1025F000000F04D5BCF5000FF7D5884270474FF0A7
:10260000807C1CEB410F38BF1CEB400F01D288428D
:10261000704780EA010081EA000180EA0100FFF7CB
:10262000F8BE00005FEA400C5FEA1C6CBCF17F035F
:1026300014D4D3F1170240F31C804FF0010C0CFAB4
:1026400002FCACF101030340B3EB5C0220EA03009F
:1026500008BF10EA0C0F88BF60447047B3F1FF3F1A
:1026600028BF5FEA002C00F0004088BF40F07E5099
:102670007047BCF1FF0FB8BF704710B5FFF755FFAB
:1026800040DBB6BE80F0004090EA010F7FF521AD3F
:1026900081F0004100F007B890EA010F48BF81F0D7
:1026A00000413FF516AD421A04D882F00042A0EB7B
:1026B000020011444FEAD0524FF07F4C1CEA410F08
:1026C000A2EBD15318BF9CEA026F4AD04FF0004CE6
:1026D0004CEA00204CEA012121FA03FCB0EB0C0C7F
:1026E0000FD412F0FE0F36D05FEA4C001DD5001259
:1026F00040EBC25038BF70471CF03F0F18BF704707
:102700000BE0A2F101025FEA1C2040EBC25038BF8F
:1027100070471CF07F0F18BF7047C3F1200399402A
:1027200014BF401E20F00100704780084FEA1223BA
:1027300008BF7047B0FA80FCA2EB0C02CCF1280C69
:1027400060FA0CF093EA122F04BF00EBC2507047FE
:102750004FEAC3707047130A5FEADC1008BF704786
:10276000F6E79CEA026F04D010EA5C0F08BF002075
:10277000704710B5FFF7D9FE40DFF63E81F000400C
:1027800070470CF00F03092B08BF082000F05180A0
:102790000A2B0BD0082B18BF704708BF1CF0400F46
:1027A0000AD04FF000004FF0000170471CF0400FBE
:1027B00018BF4FF0004070471CF0100F08D020F0F9
:1027C000704300F07F4242EAD3014FEA4370704702
:1027D00000F0604021F07F4242EA000201F07F40B9
:1027E00040EA727070474FF0FF0212EAD0521CBFED
:1027F00092F0FF038B42C2BFD14200EBC150704741
:10280000002A0AD0002B0BD0002900F00040A4BF02
:1028100040F0FE4040F40000704700F00040704778
:1028200043024FF00B0C18BF4CF0806C7FF4ACAC43
:1028300070471CF4801F11D01CF4E02F03D06FEA06
:10284000CC31490070474FF04050EFF3008222F046
:10285000704242EA000282F3008870474FF00000A5
:1028600070470000070000000002000105000100A1
:10287000BF27090000000000102700000000000032
:102880009401000010100000100000004B00040034
:10289000000000006E83F9A22915444ED15727FC91
:1028A000C0DD34F5999562DB4190433CAB6351FE4A
:1028B000D02800000000001068150000080100008A
:1028C0008030000068150010B02500006C01000089
:1028D000700600A24A04000123C03F041004D80F70
:1028E00049081006003F900A861000041580410038
:1028F000010006330AD7A33D0001031680010261DF
:102900001EE13292CC02012A6A23600C02200F30B1
:10291000063006FE1FFE1F3006380718030A200780
:10292000180318038C01023172201700E003F80F1E
:102930009C0E8C1C8C188C009800F801E007800E0F
:10294000800E100B189C18B80CF00FE0038026A125
:102950005A10090E181B0C110C110602101103114C
:10296000039B018E01C038C06C604460443002603B
:10297000071844186C0C38BE1005E001F0037A10FB
:10298000140618063003F001F000F8009C310E33F5
:10299000061E061C02E0063FFC73F021B8920C02F2
:1029A0000121E7100B0200038001C000C00060029B
:1029B000D230022114211C155E12032A15DB3220AD
:1029C000123570120302D20602111425A2214ED62E
:1029D000208821481008D806F807E00130D2052ADF
:1029E000EAC405FC3FFC3FE8092C30120002021B40
:1029F000806C080534E007E00790253AF57F750CF8
:102A0000155C351045624564D17AE00A03F0073859
:102A10000E180C0C1802D409180C380EF007E0033D
:102A2000B0214C0C071901F0019801880803A1603E
:102A300043F80F5E220002219C35F025ECD00718E8
:102A400000FC1FFC1F90100701F807180E0C012155
:102A5000C81805C003C00751113C41920210F890FC
:102A60004C0B0C000E000F000F800DC03003116BDB
:102A7000270C0CB209148513F80F9031893009EC3A
:102A800003FC071C0E001C98115E0005101C0C189E
:102A90000E602009C007F00F381C1818325409CCFA
:102AA00003EC0F3C0E1C1C2006121C2031D2458268
:102AB000357C16C07A3AE0C85A70DE05148021537E
:102AC00084073806F007F0078CE005380CF80F6033
:102AD0004130521C2430091C1C381EF81BE019D14F
:102AE000130C1CC00B1BF0018A012114011F3009BB
:102AF0001ACE1C0510001C80720416F8DC1AF85C53
:102B000017800F600A1810F8C3F81F080D1E14056F
:102B1000180708003800F00114121F61161F9C13DB
:102B2000013814091770796E6D2603FD2E033D7C64
:102B300003400C18180420C229224A11440902EC4F
:102B40000C221113E20C024004201818980315D42B
:102B5000200403C00602396E2218022C07F83FF841
:102B60003F1C70AF052119D9106C0503FC0F0C5EDA
:102B70000310040CFC070E1A18A541021E180003CE
:102B8000FA0770BC0A1F38381C300C700660DD0470
:102B9000E008600C701C30F01F903C08FE03FE0F34
:102BA000060E06A105B1022DB305E8050EFE0FFEC7
:102BB000A01DCC048DA20529AEADB0053D3803C5DE
:102BC000A211DC4DBB032D27038005F81FF81F0E53
:102BD0004DD303DDCA043C0C0FF83F3C780E600671
:102BE000E007C0810411A11DC5031533DC090EC027
:102BF0003CF0F83FE00FBF03A23002319EB1120F4C
:102C0000260C3080070D15A005021406022531DCC4
:102C1000063807F003E0B004353A10140C06060637
:102C2000038601C60066007600DE008E01060312F0
:102C3000360C64DD4105021B18022530CD2103202E
:102C4000050EE01EF0024336D8022366CC0252C6BF
:102C500001E40586C386C32010041C303C02126CBC
:102C60000212CC0210058C310C3302123602123CD7
:102C700002E638201C05E007F81F9904193EA3035B
:102C8000C002F80806600E701C38F8401BFC0F02EA
:102C9000CA38920E190CC407916082E05E140907CD
:102CA000E006630E3F1C3CE0CEF791061982580403
:102CB0001F06389C1E38C00876074C49B20E1060BB
:102CC00030065DDE041D9B051BF80330331E0040FB
:102CD0001C050E301C1C1005ED000308042A7FFEA5
:102CE0007F10E95EA97E0710181820430360BC6DB1
:102CF00014072D16072D9409140570076003631D32
:102D0000E005E13023C3610283663302236C1B02BA
:102D1000CC092C1A3C1E380E380E31051C090FE068
:102D20000C70183030183F043C040EC0075E0414C9
:102D30000503E00670F71D8107D006300E6007E03E
:102D4000602D79044C08301C383818300C65030DA0
:102D50001C80075C05FC7FFC7F6D07DD7C072D2751
:102D600008253EED10082FE003AE06011E022128C3
:102D70002DA60A6DA6094DA8091D64096D0E0B7ECE
:102D800003A009F1600221000261601D82071D4459
:102D900007256C3F6003D704291901390112FF018F
:102DA0000D39AE0A9D4A081805F003F807AA2C074A
:102DB0000C000FF00FF8B1081F0C1C5C080F16F088
:102DC0001820041ED8A80B1E38370881012DE007F3
:102DD0000F17D803DA091D9A096F300E39092DA390
:102DE000081E309009EEC00009711F2805C01BF0B5
:102DF0001F368160000719301CF01FC01B601E0FBA
:102E000083066E18D4051952EC051CF00FC0F006AD
:102E100044040FC00FDA2D9C0855E4B1020D17D4FD
:102E20000A1E0DFA093DCA0961011D600924050F3A
:102E3000E00D002A6E06AA0895204F07F86A09D10E
:102E4000010D16F00A0215C002012E3041DEEC041D
:102E5000F80078BE0C1C050C0C060C6A0D100DCC8D
:102E6000006C00FC009C018C030C03120E100C562D
:102E70000C011C020D169009E0097C3CFF7EC7E3A3
:102E800083C1020D16EA0B062398200510E0991065
:102E90001D0E0E0A17C0700916A00D16EA070917B5
:102EA000700D151B081EB06E07FE70E20D0E183077
:102EB000140D1E037A0E1D1A0B1DF2093D060C0D92
:102EC00015900C1D020F0919A00F170780EA0D09B4
:102ED000106A1238C01D4C0B0D15DB0A4DFE053E65
:102EE00018920F1DB7060E140300068DF80F300858
:102EF000C141C141C3616301323601321C010D166B
:102F0000F00F3E1CF70952605A1D5E061D75061E25
:102F100038E10B0117C01D36061D38062E18281083
:102F20002FE00C940A2D3E064DF00D1DA20D1D70D4
:102F30000C0D159A0C0D1B800D8D300B8D320E2D46
:102F4000E205BA40D63D900F0D259009CD22119E85
:102F50006024069DC60FB3030048FEC0A80E5D7432
:102F60000500075110F81F080F0001600DC0033065
:102F70000C081004200420024002210E0C05120847
:102F800010300C34032D3E052FF81F1A102D820827
:102F90004102210E0F18F81F64031EE04C0EA970A9
:102FA0000F1CF00FF60F21302D9E056102011E301F
:102FB000ADBC103AC04021660D10840A011430A146
:102FC0006E0D10A80D1D24063D42041DE30C0E20BD
:102FD000030411A1B20122307D6C121D581010049F
:102FE0008C018602128C0A00051EF001E0013010EF
:102FF00006F801FC01FE0212FC0A011E30100B80D3
:1030000007800F8019803180610212310A00041F8D
:103010000F80073010061F803F807F02123F0A0199
:1030200011301805C001200233B005013006080137
:103030002116E1024DCE082D62091D4211A00407A0
:10304000D80D027DF603910201126023041059325B
:1030500040164310041211026C042004402E09C1D2
:10306000604C07CC19C631C26142091F7006800846
:103070004D3A101D69046D10090D1E4E030000002D
:04000005000000CD2A
:00000001FF
